:100000000C942B020C945C020C945C020C945C0229
:100010000C945C020C945C020C945C020C945C02E8
:100020000C945C020C945C020C945C020C945C02D8
:100030000C945C020C945C020C945C020C945C02C8
:100040000C945C020C945C020C945C020C945C02B8
:100050000C945C020C945C020C945C020C949A0765
:100060000C945C020C9464070C943A070C945C02A8
:100070000C945C020C945C020C945C020C945C0288
:100080000C945C020C945C020C945C020C945C0278
:100090000C945C020C945C020C945C020C94E407DB
:1000A0000C945C020C945C020C945C020C945C0258
:1000B0000C945C020C945C020C945C020C945C0248
:1000C0000C945C020C945C020C945C020C945C0238
:1000D0000C945C020C945C020C945C020C945C0228
:1000E0000C945C020C9415040C9422050C94DF0310
:1000F0000C9402040C948D020C941B050C94F603D2
:100100000C94FA030C9405040C9423040C945E02E2
:100110000C941D040C94F6020C940F040C94E4034C
:100120000C9435040C94F9040C945F020C94BE02F8
:100130000C94FE030C940B040C942B040C9460029E
:100140000C94F8040C9431040C949C020C94190443
:100150000C9408090C944F050C947E050C945E03D6
:100160000C94B0020C9408050C94270400002200A3
:10017000250028002B002E00310034000201000071
:10018000050108010B010505050507050808080814
:10019000020202020A0A080804040404010101011F
:1001A000010101010303030303030303040707071A
:1001B0000C0C0C0C0C0C0C0C0202020206060606BF
:1001C000060606060B0B0B0B0B0B0B0B010210208C
:1001D000200808102040102040800201020108047D
:1001E0000201010204081020408080402010080411
:1001F000020180040201804020100804020108046A
:1002000002010102040810204080010204081020AD
:10021000408000000A0B02090C0D0E0807030401C0
:1002200000000000000000000000000000000000CE
:10023000000000000000000000000000000012119B
:10024000100000000000000000000000000000009E
:1002500000000000000000002D2D2D2D2D2D2D2D36
:100260002D2D2D2D2D2D2D2D2D2D2D2D2D2D2D2DBE
:100270002D2D2D2D2D2D2D2D2D2D2D2D2D2D2D00DB
:100280005061727469636C6573203E203130207553
:100290006D202F20302E314C206169723A00506160
:1002A000727469636C6573203E20352E30756D2045
:1002B0002F20302E314C206169723A0050617274E7
:1002C00069636C6573203E20322E35756D202F20BA
:1002D000302E314C206169723A005061727469634A
:1002E0006C6573203E20312E30756D202F20302E0E
:1002F000314C206169723A005061727469636C65B7
:1003000073203E20302E35756D202F20302E314C3D
:10031000206169723A005061727469636C65732080
:100320003E20302E33756D202F20302E314C206131
:1003300069723A002D2D2D2D2D2D2D2D2D2D2D2D8C
:100340002D2D2D2D2D2D2D2D2D2D2D2D2D2D2D2DDD
:100350002D2D2D2D2D2D2D2D2D2D2D000909504DFF
:100360002031303A20000909504D20322E353A20F4
:1003700000504D20312E303A20002D2D2D2D2D2DC9
:100380002D2D2D2D2D2D2D2D2D2D2D2D2D2D2D2D9D
:100390002D2D2D2D2D2D2D2D2D2D2D2D2D2D2D2D8D
:1003A0002D00436F6E63656E74726174696F6E20A9
:1003B000556E6974732028656E7669726F6E6D650F
:1003C0006E74616C29000909504D2031303A2000CB
:1003D0000909504D20322E353A2000504D20312E43
:1003E000303A20002D2D2D2D2D2D2D2D2D2D2D2D67
:1003F0002D2D2D2D2D2D2D2D2D2D2D2D2D2D2D2D2D
:100400002D2D2D2D2D2D2D2D2D2D2D00436F6E637A
:10041000656E74726174696F6E20556E69747320B5
:10042000287374616E6461726429002D2D2D2D2D49
:100430002D2D2D2D2D2D2D2D2D2D2D2D2D2D2D2DEC
:100440002D2D2D2D2D2D2D2D2D2D2D2D2D2D2D2DDC
:100450002D2D0000080911241FBECFEFD1E2DEBF11
:10046000CDBF00E00CBF24E0A8EAB2E001C01D92BD
:10047000AC33B207E1F712E0A0E0B2E0E6ECFDE158
:1004800000E00BBF02C007900D92A83AB107D9F760
:1004900012E0CBE2D2E000E006C021970109802FF4
:1004A000FE010E94B40DCA32D10780E00807A9F707
:1004B0000E9447090C94E10E0C94000008950895E1
:1004C000AF92BF92CF92DF92EF92FF920F931F9362
:1004D000CF93DF936C017B018B01040F151FEB01A0
:1004E0005E01AE18BF08C017D10759F06991D60157
:1004F000ED91FC910190F081E02DC6011995892BB9
:1005000079F7C501DF91CF911F910F91FF90EF9087
:10051000DF90CF90BF90AF900895FC01538D448D34
:10052000252F30E0842F90E0821B930B541710F09E
:10053000CF96089501970895FC01918D828D9817AB
:1005400061F0A28DAE0FBF2FB11D5D968C91928D83
:100550009F5F9F73928F90E008958FEF9FEF0895B4
:10056000FC01918D828D981731F0828DE80FF11D7D
:10057000858D90E008958FEF9FEF0895FC01918D98
:10058000228D892F90E0805C9F4F821B91098F7391
:10059000992708958BE693E00E94BE0221E0892B03
:1005A00009F420E0822F0895FC01A48DA80FB92F33
:1005B000B11DA35ABF4F2C91848D90E001968F738B
:1005C0009927848FA689B7892C93A089B1898C91AA
:1005D000837080648C93938D848D981306C00288F9
:1005E000F389E02D80818F7D80830895EF92FF92C3
:1005F0000F931F93CF93DF93EC0181E0888F9B8D46
:100600008C8D98131AC0E889F989808185FF15C0FF
:100610009FB7F894EE89FF896083E889F989808122
:100620008370806480839FBF81E090E0DF91CF91F1
:100630001F910F91FF90EF900895F62E0B8D10E013
:100640000F5F1F4F0F731127E02E8C8D8E110CC082
:100650000FB607FCFACFE889F989808185FFF5CFCD
:10066000CE010E94D402F1CFEB8DEC0FFD2FF11DD6
:10067000E35AFF4FF0829FB7F8940B8FEA89FB890A
:1006800080818062CFCF0F931F93CF93DF938C0134
:10069000D0E0C0E0F801EC0FFD1F6491662341F04B
:1006A0008BE693E00E94F602892B11F02196F2CF9F
:1006B000CE01DF91CF911F910F910895CF93DF93DA
:1006C000EC01888D8823B9F0AA89BB89E889F9896A
:1006D0008C9185FD03C0808186FD0DC00FB607FC9F
:1006E000F7CF8C9185FFF2CF808185FFEDCFCE01D2
:1006F0000E94D402E9CFDF91CF91089580E090E08D
:10070000892B29F00E94CA0281110E94000080E01A
:1007100090E0892B49F080E090E0892B29F00E943D
:10072000000081110E94000080E090E0892B49F0D8
:1007300080E090E0892B29F00E94000081110E9446
:10074000000080E090E0892B49F080E090E0892B68
:1007500029F00E94000081110C9400000895282FB8
:1007600030E0F901EE5EFD4F9491F901E453FE4F44
:1007700044912A573E4FF9012491222309F435C0B0
:10078000992311F191509231F8F4E92FF0E0882784
:10079000E353FC4F8F4F0C94B40DFE030204DF03B0
:1007A000F603FA03E40305040B040F04150419040B
:1007B0001D0423042704E4032B0431043504809131
:1007C00080008F7780938000E22FF0E0EE0FFF1F14
:1007D000E459FE4FA591B4918FB7F894EC91611153
:1007E00048C040954E234C938FBF08958091800060
:1007F0008F7DE8CF80918000877FE4CF84B58F77AD
:1008000084BDE2CF84B58F7DFBCF8091B0008F7720
:100810008093B000D9CF8091B0008F7DF9CF8091C7
:1008200090008F7780939000CFCF809190008F7D44
:10083000F9CF80919000877FF5CF8091A0008F77CE
:100840008093A000C1CF8091A0008F7DF9CF8091CF
:10085000A000877FF5CF809120018F7780932001C2
:10086000B3CF809120018F7DF9CF80912001877FC8
:10087000F5CF4E2BB8CF3FB7F89480910F039091EE
:100880001003A0911103B091120326B5A89B05C0D7
:100890002F3F19F00196A11DB11D3FBFBA2FA92FFF
:1008A000982F8827BC01CD01620F711D811D911DFC
:1008B00042E0660F771F881F991F4A95D1F7089568
:1008C0008F929F92AF92BF92CF92DF92EF92FF9260
:1008D0004B015C010E943B046B017C010E943B04C4
:1008E0006C197D098E099F09683E73408105910549
:1008F000A8F321E0821A9108A108B10888EEC80E79
:1009000083E0D81EE11CF11C81149104A104B10400
:1009100029F7FF90EF90DF90CF90BF90AF909F901E
:100920008F9008952091EB02260F3327331F213239
:100930003105ECF420914303FC0190E080E0243089
:1009400069F082E00895A091EB022191AC0145533A
:100950005D4FA40FB52FB11D2C930196861798F308
:100960008091EB02680F6093EB0280E0089581E0D4
:1009700008951092430381E08093420310923D0357
:1009800061E084E10E94AF0361E085E10E94AF0372
:10099000E9EBF0E080818E7F808380818D7F808392
:1009A00088E48093B80085E48093BC000895CF93D9
:1009B000DF9391E09093CA028823B9F0C091B80008
:1009C000D091BA008091BC008A7B8093BC0060E02B
:1009D00084E10E94AF0360E085E10E94AF030E94C2
:1009E000B904D093BA00C093B800DF91CF910895B5
:1009F0000895E0914A0380914903E81730F4F0E04C
:100A0000E55BFC4F808190E008958FEF9FEF0895A4
:100A100090914A03809149032FEF3FEF981748F4D4
:100A2000E92FF0E0E55BFC4F208130E09F5F909381
:100A30004A03C90108958091490390914A03891B93
:100A4000990B0895CF92DF92EF92FF920F931F932D
:100A5000CF93DF937C01CB018A012091C90222232D
:100A600089F0EB016B01C40ED51ECC15DD0569F0D4
:100A70006991D701ED91FC910190F081E02DC701C2
:100A80001995F3CF642F0E949204C801DF91CF9192
:100A90001F910F91FF90EF90DF90CF900895CF932B
:100AA000DF931F92CDB7DEB769832091C90222235D
:100AB000F9F020911703203258F021E030E0FC01DA
:100AC0003383228390E080E00F90DF91CF910895EF
:100AD00080911803E82FF0E0E755FD4F998190834E
:100AE0008F5F809318038093170381E090E0ECCF31
:100AF00061E0CE0101960E949204F7CF90E080E081
:100B00000895CF92DF92EF92FF920F931F93CF93AE
:100B1000DF93EC018B81882309F47AC0C88181E0DE
:100B20008093C902C093A802109218031092170371
:100B30000E943B046B017C018091430381118EC0B4
:100B400082E08093430381E0809342038FEF8093A0
:100B500041031092400310923F0310923E03809194
:100B60003E03CC0FC82BC0933E0380913D038130E0
:100B700009F0A5C010923D030E943B046B017C016B
:100B800080913E038093BB00809145039091460382
:100B9000A0914703B0914803892B8A2B8B2BA1F09E
:100BA0000E943B04009145031091460320914703A6
:100BB000309148036C197D098E099F0906171707A4
:100BC0002807390708F46BC08091BC0083FDD8CF9B
:100BD00085EC8093BC000E943B046B017C018091FA
:100BE0004303823009F46DC08091410390E08F3F50
:100BF00009F45AC08091410392E0803209F454C054
:100C00008091410394E0803309F04EC093E04CC0E2
:100C100010924A031092490310921803109217037E
:100C20000E94B9048EE592E0909316038093150319
:100C30008FE592E0909314038093130381E08B83FC
:100C4000CE010E948105811169CFDF91CF911F9163
:100C50000F91FF90EF90DF90CF9008958091450322
:100C600090914603A0914703B0914803892B8A2BAA
:100C70008B2B09F461CF0E943B0400914503109136
:100C8000460320914703309148036C197D098E0972
:100C90009F09061717072807390708F04DCF8091DD
:100CA00044030E94D70495E0109218031092170392
:100CB0001092C90281E0992341F280E0C6CF85EE0F
:100CC00088CF8091450390914603A0914703B0914E
:100CD0004803892B8A2B8B2B09F481CF0E943B047C
:100CE000009145031091460320914703309148033A
:100CF0006C197D098E099F09061717072807390700
:100D000008F06DCFCCCFFC0101900020E9F73197BE
:100D1000AF01481B590BBC018BE693E00C946002B9
:100D20008F929F92AF92BF920F931F93CF93DF93B7
:100D3000CDB7DEB7A1970FB6F894DEBF0FBECDBF1B
:100D400019A2423008F44AE08E010F5D1F4F842E35
:100D5000912CB12CA12CA50194010E94920DE62F9B
:100D6000B901CA01EA30F4F4E05DD801EE938D01D7
:100D7000232B242B252B79F790E080E0109719F096
:100D8000CD010E948306A1960FB6F894DEBF0FBE78
:100D9000CDBFDF91CF911F910F91BF90AF909F90EA
:100DA0008F900895E95CE1CFCF93DF930E94830693
:100DB000EC018AE292E00E9483068C0F9D1FDF9176
:100DC000CF910895CF93DF930E944303EC018AE211
:100DD00092E00E9483068C0F9D1FDF91CF910895B2
:100DE000CF93DF93BC0190E080E04AE00E94900640
:100DF000EC018AE292E00E9483068C0F9D1FDF9136
:100E0000CF91089585ED8093BC008091450390912A
:100E10004603A0914703B09148030796A11DB11D59
:100E200023E0B695A795979587952A95D1F72091B8
:100E3000BC0024FD03C01092430308954091450374
:100E4000509146036091470370914803452B462B10
:100E5000472B69F30097A105B10541F025E32A95D9
:100E6000F1F700000197A109B109E1CF8091440396
:100E70000C94D7041F920F920FB60F9211240BB649
:100E80000F922F933F934F935F936F937F938F9323
:100E90009F93AF93BF93EF93FF938BE693E00E94F2
:100EA000D402FF91EF91BF91AF919F918F917F916C
:100EB0006F915F914F913F912F910F900BBE0F90CB
:100EC0000FBE0F901F9018951F920F920FB60F92A2
:100ED00011240BB60F922F938F939F93EF93FF9351
:100EE000E0917B03F0917C038081E0918103F0919C
:100EF000820382FD1DC09081809184038F5F8F7378
:100F000020918503821741F0E0918403F0E0E559D8
:100F1000FC4F958F80938403FF91EF919F918F9168
:100F20002F910F900BBE0F900FBE0F901F90189532
:100F30008081F2CF1F920F920FB60F9211242F9340
:100F40003F938F939F93AF93BF9380911903909199
:100F50001A03A0911B03B0911C0330910E0323E0F0
:100F6000230F2D3758F50196A11DB11D20930E03B7
:100F70008093190390931A03A0931B03B0931C034F
:100F800080910F0390911003A0911103B09112036F
:100F90000196A11DB11D80930F0390931003A093A0
:100FA0001103B0931203BF91AF919F918F913F9125
:100FB0002F910F900FBE0F901F90189526E8230FCA
:100FC0000296A11DB11DD2CF1F920F920FB60F92A4
:100FD00011240BB60F922F933F934F935F936F9310
:100FE0007F938F939F93AF93BF93EF93FF938091E2
:100FF000B900887F803609F44DC008F040C08832BF
:1010000009F4A9C028F5803109F49DC0C8F48823EB
:1010100009F4FBC0883009F496C0FF91EF91BF91AD
:10102000AF919F918F917F916F915F914F913F9180
:101030002F910F900BBE0F900FBE0F901F90189521
:10104000883109F488C0803241F78093410314C08D
:10105000803409F49DC040F48033B9F38833E9F655
:101060008093410385ECB0C0803509F485C0883594
:1010700009F496C0883489F60E940207CECF8839D9
:1010800009F48CC038F5883729F050F4883611F00F
:10109000803719F683E08093430310920D0357C005
:1010A000883809F47BC0803919F0803809F0B5CF51
:1010B00080910D03803208F071C0E0910D0381E052
:1010C0008E0F80930D038091BB00F0E0E351FD4F44
:1010D00080833DC0803B39F0E0F4803A09F479C068
:1010E000883A09F09ACF84E0809343031092EC028F
:1010F0001092EB02E0911503F0911603199580917F
:10110000EB0281110FC081E08093EB021092CB02C1
:1011100009C0803C09F4A6CF883C09F4A3CF883BE2
:1011200009F07BCFE091EC0281E08E0F8093EC021E
:10113000F0E0E553FD4F80818093BB009091EC027D
:101140008091EB0229C080913E038093BB0085EC27
:101150008093BC0062CF9091400380913F03981729
:1011600058F5E091400381E08E0F80934003F0E05A
:10117000E35EFC4F8081E9CFE091400381E08E0F78
:10118000809340038091BB00F0E0E35EFC4F8083DE
:101190009091400380913F039817C8F285E8D8CF1B
:1011A000E091400381E08E0F809340038091BB006B
:1011B000F0E0E35EFC4F80838091420381115CCFBD
:1011C00081E080933D0384EA8093BC001092430346
:1011D00024CF85EC8093BC001092430380910D03D3
:1011E000803230F4E0910D03F0E0E351FD4F1082C6
:1011F00060910D0370E0E0911303F09114038DEE04
:1012000092E0199510920D0308CF1092410334CF4C
:10121000EBE6F3E01382128288EE93E0A0E0B0E008
:1012200084839583A683B7832AE032E031832083C9
:1012300025EC30E03587248724EC30E0378726879B
:1012400020EC30E0318B208B21EC30E0338B228B93
:1012500022EC30E0358B248B26EC30E0378B268B6C
:10126000118E128E138E148EE8E0F4E01382128237
:1012700084839583A683B7838CE192E091838083F6
:10128000E4E1F4E011821082138212820895CF9378
:10129000DF93CDB7DEB7C755D1090FB6F894DEBFDF
:1012A0000FBECDBF789484B5826084BD84B5816063
:1012B00084BD85B5826085BD85B5816085BD809121
:1012C0006E00816080936E00109281008091810099
:1012D0008260809381008091810081608093810091
:1012E000809180008160809380008091B100846053
:1012F0008093B1008091B00081608093B0008091B4
:101300009100826080939100809191008160809330
:101310009100809190008160809390008091A10065
:1013200082608093A1008091A10081608093A100E0
:101330008091A00081608093A00080912101826053
:10134000809321018091210181608093210180910E
:10135000200181608093200180917A0084608093D5
:101360007A0080917A00826080937A0080917A007E
:10137000816080937A0080917A00806880937A00FF
:101380001092C100E0917B03F0917C0382E08083A6
:10139000E0917703F09178031082E0917903F09166
:1013A0007A0380E1808310928303E0917F03F091C0
:1013B000800386E08083E0917D03F0917E0380814D
:1013C00080618083E0917D03F0917E03808188605D
:1013D0008083E0917D03F0917E038081806880832B
:1013E000E0917D03F0917E0380818F7D80838DE28B
:1013F00092E00E94D40668EE73E080E090E00E94E4
:1014000060048091140490911504892BA1F486E066
:1014100090E00E94BC0DFC0182E1808388E094E0B2
:1014200092838183138280E290E095838483F0939A
:101430001504E09314040091140410911504109203
:101440004A031092490310921803109217030E9446
:10145000B9048EE592E090931603809315038FE50F
:1014600092E0909314038093130381E0D8011396C4
:101470008C93C8010E94810522968FAF229781111B
:101480000BC082E592E00E94D4066AE070E080E042
:1014900090E00E946004F9CF80E792E00E94D406B9
:1014A000FE0131964F01F0E26F2E712C9E01215EFC
:1014B0003F4F21963FAF2EAF2197A0901404B090DC
:1014C0001504A114B10409F420C2D12CC12CD501FA
:1014D00014968D919C917301EC18FD088E159F0553
:1014E00008F47C01F50100810E943B041B012C01E2
:1014F00080914303811173C01E2D113208F010E258
:10150000F1E0F093430321E0C3018E199F09C8164F
:10151000D90608F420E0209342032FEF20934103E3
:10152000109240038FEF810F80933F0331E030939F
:101530003E0380913E03000F082B00933E038091F1
:101540003D03813009F092C010923D030E943B049C
:101550001B012C0180913E038093BB0080914503C9
:1015600090914603A0914703B0914803892B8A2BA1
:101570008B2BA1F00E943B04209145033091460340
:1015800040914703509148036219730984099509F2
:10159000261737074807590708F442C08091BC0056
:1015A00083FDD8CF85EC8093BC000E943B041B01D7
:1015B0002C0180914303813009F45CC08091400389
:1015C000811710F410914003ADE1B3E0EBE4F3E0D8
:1015D00080E0811751F19D9191938F5FFACF8091B7
:1015E000450390914603A0914703B0914803892B8E
:1015F0008A2B8B2B09F47CCF0E943B04209145035E
:101600003091460340914703509148036219730992
:1016100084099509261737074807590708F068CF46
:10162000809144030E94D70410E010924A03109363
:1016300049031E151F0409F079C184010C0D1D1DFD
:101640002801C801841995098E159F05A8F5D501B3
:1016500011968D919C91DC01ED91FC910284F385B2
:10166000E02D1995F80181938F01EBCF95EE9093C2
:10167000BC009BCF8091450390914603A091470306
:10168000B0914803892B8A2B8B2B09F492CF0E94AF
:101690003B0420914503309146034091470350910C
:1016A0004803621973098409950926173707480703
:1016B000590708F07ECFB4CFCE0CDF1CF0E2CF1676
:1016C000D10408F404CF8981823409F02FC1FE01CE
:1016D00031968F0130E020E0D8018D918D01280FE7
:1016E000311D21968EAD9FAD21978A179B07A1F7DB
:1016F000AE014F5D5F4F828190E0982F8827638114
:10170000860F911DDA018D939D93AD013296E017FE
:10171000F10789F7EBA1FCA12C96FFAFEEAF2C9758
:101720008DA19EA162969FAF8EAF6297AFA1B8A523
:101730006896BFAFAEAF6897E9A5FAA52696FFAF4A
:10174000EEAF26970BA51CA58DA59EA528969FAF4D
:101750008EAF2897AFA5B8A92A96BFAFAEAF2A978C
:10176000E9A9FAA96496FFAFEEAF64978BA99CA98B
:1017700066969FAF8EAF6697ADA9BEA92496BFAF00
:10178000AEAF2497EFA9F8AD2E96FFAFEEAF2E9730
:1017900089AD9AAD60969FAF8EAF60978DAD9EADCF
:1017A0002817390709F0C2C08CE792E00E94D406DE
:1017B0008AE292E00E9483068BE294E00E94E206B5
:1017C0008CE094E00E94E20684EE93E00E94E20640
:1017D0008BED93E00E9443032C96AEADBFAD2C97EA
:1017E000BD0190E080E04AE00E94900680ED93E029
:1017F0000E9443036296EEADFFAD6297BF0190E099
:1018000080E04AE00E94900686EC93E00E94430349
:1018100068968EAD9FAD68970E94F00682EA93E0CD
:101820000E94E2068AE793E00E94E20681E793E0E5
:101830000E94430326962EAD3FAD2697B90190E056
:1018400080E04AE00E94900686E693E00E9443030F
:10185000B80190E080E04AE00E9490068CE593E0B9
:101860000E94430328968EAD9FAD28970E94F006F4
:1018700084E393E00E94E20686E193E00E94430342
:101880002A968EAD9FAD2A970E94F00688EF92E0CF
:101890000E94430364968EAD9FAD64970E94F0064C
:1018A0008AED92E00E94430366968EAD9FAD6697E7
:1018B0000E94F0068CEB92E00E94430324968EADCA
:1018C0009FAD24970E94F0068EE992E00E944303A8
:1018D0002E968EAD9FAD2E970E94F00680E892E086
:1018E0000E94430360968EAD9FAD60970E94F00604
:1018F00088E592E00E94E20668EE73E080E090E006
:101900000E9460040E947E03D8CD809116049091BD
:101910001704009759F0DC01ED91FC910084F185EA
:10192000E02D199500E210E0892B61F480E992E046
:101930000E94D40664EF71E080E090E0E1CF0150B6
:101940001109A1F18091160490911704DC01ED9129
:10195000FC910484F585E02D19958234910531F1CF
:101960008091160490911704DC01ED91FC910484A0
:10197000F585E02D19954697C9F080911604909150
:101980001704DC01ED91FC910284F385E02D19959B
:101990008091160490911704DC01ED91FC91008474
:1019A000F185E02D1995892B51F6C0CF8091160451
:1019B00090911704DC01ED91FC910484F585E02DF4
:1019C00019958234910509F07FC080911604909199
:1019D0001704DC01ED91FC910484F585E02D199547
:1019E000B12CE0E2EE2EF12C469731F42296BFACFA
:1019F000229774E1E72EF12C809116049091170440
:101A0000DC01ED91FC910084F185E02D19958E1596
:101A10009F0508F48BCF0091160410911704640100
:101A20002FB7F8948091190390911A03A0911B038A
:101A3000B0911C032FBFF80180879187A287B387DD
:101A4000D801ED91FC910284F385E02DC801199530
:101A500097FF54C02FB7F8948091190390911A03FF
:101A6000A0911B03B0911C032FBFF8014085518545
:101A700062857385841B950BA60BB70B448155813A
:101A80006681778184179507A607B707C8F2898111
:101A9000BB2009F418CE863109F048CF8A81813104
:101AA00009F044CF8B8130E020E08B3009F03ECF4D
:101AB000832F90E08E159F0560F5880D991DDC0140
:101AC0008C91280F3F5FF4CF8091160490911704FA
:101AD000DC01ED91FC910484F585E02D1995469784
:101AE00009F473CF8091160490911704DC01ED91F5
:101AF000FC910284F385E02D199518CFD6018D93C2
:101B00006D01CD01881999098E159F0508F488CFBC
:101B1000BECF0E811F81102701271027222309F431
:101B200043CE04CFA1E21A2EAA1BBB1BFD010DC0A0
:101B3000AA1FBB1FEE1FFF1FA217B307E407F5077D
:101B400020F0A21BB30BE40BF50B661F771F881F59
:101B5000991F1A9469F760957095809590959B01EF
:101B6000AC01BD01CF010895EE0FFF1F881F8BBF91
:101B70000790F691E02D19940F931F93CF93DF9365
:101B80008230910510F482E090E0E0913A04F09107
:101B90003B0430E020E0B0E0A0E0309799F421155C
:101BA000310509F44AC0281B390B24303105D8F51A
:101BB0008A819B816115710589F1FB019383828381
:101BC000FE0111C0408151810281138148175907DC
:101BD000E0F04817590799F4109761F012960C93AA
:101BE000129713961C933296CF01DF91CF911F91DC
:101BF0000F91089500933A0410933B04F4CF2115FC
:101C0000310551F04217530738F0A901DB019A0161
:101C1000BD01DF01F801C1CFEF01F9CF90933B0483
:101C200080933A04CDCFFE01E20FF31F819391938D
:101C30002250310939832883D7CF2091380430913D
:101C40003904232B41F42091020230910302309396
:101C500039042093380420910002309101022115AB
:101C6000310541F42DB73EB7409104025091050271
:101C7000241B350BE0913804F0913904E217F30787
:101C8000A0F42E1B3F0B2817390778F0AC014E5FEC
:101C90005F4F2417350748F04E0F5F1F50933904EC
:101CA00040933804819391939FCFF0E0E0E09CCF84
:101CB000CF93DF930097E9F0FC01329713821282F1
:101CC000A0913A04B0913B04ED0130E020E0109780
:101CD000A1F420813181820F931F2091380430912B
:101CE00039042817390709F061C0F0933904E093EB
:101CF0003804DF91CF910895EA01CE17DF07E8F5A8
:101D00004A815B819E0141155105B1F7E901FB83D1
:101D1000EA8349915991C40FD51FEC17FD0761F46F
:101D2000808191810296840F951FE90199838883B0
:101D3000828193819B838A83F0E0E0E012968D910B
:101D40009C9113970097B9F52D913C911197CD0176
:101D50000296820F931F209138043091390428177E
:101D6000390739F6309751F510923B0410923A0436
:101D7000B0933904A0933804BCCFD383C28340818D
:101D80005181840F951FC817D90761F44E5F5F4FCB
:101D900088819981480F591F518340838A819B8193
:101DA000938382832115310509F0B0CFF0933B0472
:101DB000E0933A049ECFFD01DC01C0CF1382128272
:061DC000D7CFF894FFCF1D
:101DC60000003C04800000000000F60260028D0264
:101DD6005E03BE029C02B002000000004F05220511
:101DE6007E05F8041B050805F9040D0A0041646127
:101DF600667275697420504D534130303349204125
:101E06006972205175616C6974792053656E736FC0
:101E16007200436F756C64206E6F742066696E6421
:101E260020504D20322E352073656E736F7221005F
:101E3600504D323520666F756E6421004151492040
:101E460072656164696E6720737563636573730099
:101E5600436F756C64206E6F7420726561642066D2
:081E6600726F6D20415149002B
:00000001FF
