:020000040000FA
:100000000C942B020C945C020C945C020C945C0229
:100010000C945C020C945C020C945C020C945C02E8
:100020000C945C020C945C020C945C020C945C02D8
:100030000C945C020C945C020C945C020C945C02C8
:100040000C945C020C945C020C945C020C945C02B8
:100050000C945C020C945C020C945C020C949A0765
:100060000C945C020C9464070C943A070C945C02A8
:100070000C945C020C945C020C945C020C945C0288
:100080000C945C020C945C020C945C020C945C0278
:100090000C945C020C945C020C945C020C94E407DB
:1000A0000C945C020C945C020C945C020C945C0258
:1000B0000C945C020C945C020C945C020C945C0248
:1000C0000C945C020C945C020C945C020C945C0238
:1000D0000C945C020C945C020C945C020C945C0228
:1000E0000C945C020C9415040C9422050C94DF0310
:1000F0000C9402040C948D020C941B050C94F603D2
:100100000C94FA030C9405040C9423040C945E02E2
:100110000C941D040C94F6020C940F040C94E4034C
:100120000C9435040C94F9040C945F020C94BE02F8
:100130000C94FE030C940B040C942B040C9460029E
:100140000C94F8040C9431040C949C020C94190443
:100150000C9408090C944F050C947E050C945E03D6
:100160000C94B0020C9408050C94270400002200A3
:10017000250028002B002E00310034000201000071
:10018000050108010B010505050507050808080814
:10019000020202020A0A080804040404010101011F
:1001A000010101010303030303030303040707071A
:1001B0000C0C0C0C0C0C0C0C0202020206060606BF
:1001C000060606060B0B0B0B0B0B0B0B010210208C
:1001D000200808102040102040800201020108047D
:1001E0000201010204081020408080402010080411
:1001F000020180040201804020100804020108046A
:1002000002010102040810204080010204081020AD
:10021000408000000A0B02090C0D0E0807030401C0
:1002200000000000000000000000000000000000CE
:10023000000000000000000000000000000012119B
:10024000100000000000000000000000000000009E
:1002500000000000000000002D2D2D2D2D2D2D2D36
:100260002D2D2D2D2D2D2D2D2D2D2D2D2D2D2D2DBE
:100270002D2D2D2D2D2D2D2D2D2D2D2D2D2D2D00DB
:100280005061727469636C6573203E203130207553
:100290006D202F20302E314C206169723A00506160
:1002A000727469636C6573203E20352E30756D2045
:1002B0002F20302E314C206169723A0050617274E7
:1002C00069636C6573203E20322E35756D202F20BA
:1002D000302E314C206169723A005061727469634A
:1002E0006C6573203E20312E30756D202F20302E0E
:1002F000314C206169723A005061727469636C65B7
:1003000073203E20302E35756D202F20302E314C3D
:10031000206169723A005061727469636C65732080
:100320003E20302E33756D202F20302E314C206131
:1003300069723A002D2D2D2D2D2D2D2D2D2D2D2D8C
:100340002D2D2D2D2D2D2D2D2D2D2D2D2D2D2D2DDD
:100350002D2D2D2D2D2D2D2D2D2D2D000909504DFF
:100360002031303A20000909504D20322E353A20F4
:1003700000504D20312E303A20002D2D2D2D2D2DC9
:100380002D2D2D2D2D2D2D2D2D2D2D2D2D2D2D2D9D
:100390002D2D2D2D2D2D2D2D2D2D2D2D2D2D2D2D8D
:1003A0002D00436F6E63656E74726174696F6E20A9
:1003B000556E6974732028656E7669726F6E6D650F
:1003C0006E74616C29000909504D2031303A2000CB
:1003D0000909504D20322E353A2000504D20312E43
:1003E000303A20002D2D2D2D2D2D2D2D2D2D2D2D67
:1003F0002D2D2D2D2D2D2D2D2D2D2D2D2D2D2D2D2D
:100400002D2D2D2D2D2D2D2D2D2D2D00436F6E637A
:10041000656E74726174696F6E20556E69747320B5
:10042000287374616E6461726429002D2D2D2D2D49
:100430002D2D2D2D2D2D2D2D2D2D2D2D2D2D2D2DEC
:100440002D2D2D2D2D2D2D2D2D2D2D2D2D2D2D2DDC
:100450002D2D0000080911241FBECFEFD1E2DEBF11
:10046000CDBF00E00CBF24E0A8EAB2E001C01D92BD
:10047000AC33B207E1F712E0A0E0B2E0E6ECFDE158
:1004800000E00BBF02C007900D92A83AB107D9F760
:1004900012E0CBE2D2E000E006C021970109802FF4
:1004A000FE010E94B40DCA32D10780E00807A9F707
:1004B0000E9447090C94E10E0C94000008950895E1
:1004C000AF92BF92CF92DF92EF92FF920F931F9362
:1004D000CF93DF936C017B018B01040F151FEB01A0
:1004E0005E01AE18BF08C017D10759F06991D60157
:1004F000ED91FC910190F081E02DC6011995892BB9
:1005000079F7C501DF91CF911F910F91FF90EF9087
:10051000DF90CF90BF90AF900895FC01538D448D34
:10052000252F30E0842F90E0821B930B541710F09E
:10053000CF96089501970895FC01918D828D9817AB
:1005400061F0A28DAE0FBF2FB11D5D968C91928D83
:100550009F5F9F73928F90E008958FEF9FEF0895B4
:10056000FC01918D828D981731F0828DE80FF11D7D
:10057000858D90E008958FEF9FEF0895FC01918D98
:10058000228D892F90E0805C9F4F821B91098F7391
:10059000992708958BE693E00E94BE0221E0892B03
:1005A00009F420E0822F0895FC01A48DA80FB92F33
:1005B000B11DA35ABF4F2C91848D90E001968F738B
:1005C0009927848FA689B7892C93A089B1898C91AA
:1005D000837080648C93938D848D981306C00288F9
:1005E000F389E02D80818F7D80830895EF92FF92C3
:1005F0000F931F93CF93DF93EC0181E0888F9B8D46
:100600008C8D98131AC0E889F989808185FF15C0FF
:100610009FB7F894EE89FF896083E889F989808122
:100620008370806480839FBF81E090E0DF91CF91F1
:100630001F910F91FF90EF900895F62E0B8D10E013
:100640000F5F1F4F0F731127E02E8C8D8E110CC082
:100650000FB607FCFACFE889F989808185FFF5CFCD
:10066000CE010E94D402F1CFEB8DEC0FFD2FF11DD6
:10067000E35AFF4FF0829FB7F8940B8FEA89FB890A
:1006800080818062CFCF0F931F93CF93DF938C0134
:10069000D0E0C0E0F801EC0FFD1F6491662341F04B
:1006A0008BE693E00E94F602892B11F02196F2CF9F
:1006B000CE01DF91CF911F910F910895CF93DF93DA
:1006C000EC01888D8823B9F0AA89BB89E889F9896A
:1006D0008C9185FD03C0808186FD0DC00FB607FC9F
:1006E000F7CF8C9185FFF2CF808185FFEDCFCE01D2
:1006F0000E94D402E9CFDF91CF91089580E090E08D
:10070000892B29F00E94CA0281110E94000080E01A
:1007100090E0892B49F080E090E0892B29F00E943D
:10072000000081110E94000080E090E0892B49F0D8
:1007300080E090E0892B29F00E94000081110E9446
:10074000000080E090E0892B49F080E090E0892B68
:1007500029F00E94000081110C9400000895282FB8
:1007600030E0F901EE5EFD4F9491F901E453FE4F44
:1007700044912A573E4FF9012491222309F435C0B0
:10078000992311F191509231F8F4E92FF0E0882784
:10079000E353FC4F8F4F0C94B40DFE030204DF03B0
:1007A000F603FA03E40305040B040F04150419040B
:1007B0001D0423042704E4032B0431043504809131
:1007C00080008F7780938000E22FF0E0EE0FFF1F14
:1007D000E459FE4FA591B4918FB7F894EC91611153
:1007E00048C040954E234C938FBF08958091800060
:1007F0008F7DE8CF80918000877FE4CF84B58F77AD
:1008000084BDE2CF84B58F7DFBCF8091B0008F7720
:100810008093B000D9CF8091B0008F7DF9CF8091C7
:1008200090008F7780939000CFCF809190008F7D44
:10083000F9CF80919000877FF5CF8091A0008F77CE
:100840008093A000C1CF8091A0008F7DF9CF8091CF
:10085000A000877FF5CF809120018F7780932001C2
:10086000B3CF809120018F7DF9CF80912001877FC8
:10087000F5CF4E2BB8CF3FB7F89480910F039091EE
:100880001003A0911103B091120326B5A89B05C0D7
:100890002F3F19F00196A11DB11D3FBFBA2FA92FFF
:1008A000982F8827BC01CD01620F711D811D911DFC
:1008B00042E0660F771F881F991F4A95D1F7089568
:1008C0008F929F92AF92BF92CF92DF92EF92FF9260
:1008D0004B015C010E943B046B017C010E943B04C4
:1008E0006C197D098E099F09683E73408105910549
:1008F000A8F321E0821A9108A108B10888EEC80E79
:1009000083E0D81EE11CF11C81149104A104B10400
:1009100029F7FF90EF90DF90CF90BF90AF909F901E
:100920008F9008952091EB02260F3327331F213239
:100930003105ECF420914303FC0190E080E0243089
:1009400069F082E00895A091EB022191AC0145533A
:100950005D4FA40FB52FB11D2C930196861798F308
:100960008091EB02680F6093EB0280E0089581E0D4
:1009700008951092430381E08093420310923D0357
:1009800061E084E10E94AF0361E085E10E94AF0372
:10099000E9EBF0E080818E7F808380818D7F808392
:1009A00088E48093B80085E48093BC000895CF93D9
:1009B000DF9391E09093CA028823B9F0C091B80008
:1009C000D091BA008091BC008A7B8093BC0060E02B
:1009D00084E10E94AF0360E085E10E94AF030E94C2
:1009E000B904D093BA00C093B800DF91CF910895B5
:1009F0000895E0914A0380914903E81730F4F0E04C
:100A0000E55BFC4F808190E008958FEF9FEF0895A4
:100A100090914A03809149032FEF3FEF981748F4D4
:100A2000E92FF0E0E55BFC4F208130E09F5F909381
:100A30004A03C90108958091490390914A03891B93
:100A4000990B0895CF92DF92EF92FF920F931F932D
:100A5000CF93DF937C01CB018A012091C90222232D
:100A600089F0EB016B01C40ED51ECC15DD0569F0D4
:100A70006991D701ED91FC910190F081E02DC701C2
:100A80001995F3CF642F0E949204C801DF91CF9192
:100A90001F910F91FF90EF90DF90CF900895CF932B
:100AA000DF931F92CDB7DEB769832091C90222235D
:100AB000F9F020911703203258F021E030E0FC01DA
:100AC0003383228390E080E00F90DF91CF910895EF
:100AD00080911803E82FF0E0E755FD4F998190834E
:100AE0008F5F809318038093170381E090E0ECCF31
:100AF00061E0CE0101960E949204F7CF90E080E081
:100B00000895CF92DF92EF92FF920F931F93CF93AE
:100B1000DF93EC018B81882309F47AC0C88181E0DE
:100B20008093C902C093A802109218031092170371
:100B30000E943B046B017C018091430381118EC0B4
:100B400082E08093430381E0809342038FEF8093A0
:100B500041031092400310923F0310923E03809194
:100B60003E03CC0FC82BC0933E0380913D038130E0
:100B700009F0A5C010923D030E943B046B017C016B
:100B800080913E038093BB00809145039091460382
:100B9000A0914703B0914803892B8A2B8B2BA1F09E
:100BA0000E943B04009145031091460320914703A6
:100BB000309148036C197D098E099F0906171707A4
:100BC0002807390708F46BC08091BC0083FDD8CF9B
:100BD00085EC8093BC000E943B046B017C018091FA
:100BE0004303823009F46DC08091410390E08F3F50
:100BF00009F45AC08091410392E0803209F454C054
:100C00008091410394E0803309F04EC093E04CC0E2
:100C100010924A031092490310921803109217037E
:100C20000E94B9048EE592E0909316038093150319
:100C30008FE592E0909314038093130381E08B83FC
:100C4000CE010E948105811169CFDF91CF911F9163
:100C50000F91FF90EF90DF90CF9008958091450322
:100C600090914603A0914703B0914803892B8A2BAA
:100C70008B2B09F461CF0E943B0400914503109136
:100C8000460320914703309148036C197D098E0972
:100C90009F09061717072807390708F04DCF8091DD
:100CA00044030E94D70495E0109218031092170392
:100CB0001092C90281E0992341F280E0C6CF85EE0F
:100CC00088CF8091450390914603A0914703B0914E
:100CD0004803892B8A2B8B2B09F481CF0E943B047C
:100CE000009145031091460320914703309148033A
:100CF0006C197D098E099F09061717072807390700
:100D000008F06DCFCCCFFC0101900020E9F73197BE
:100D1000AF01481B590BBC018BE693E00C946002B9
:100D20008F929F92AF92BF920F931F93CF93DF93B7
:100D3000CDB7DEB7A1970FB6F894DEBF0FBECDBF1B
:100D400019A2423008F44AE08E010F5D1F4F842E35
:100D5000912CB12CA12CA50194010E94920DE62F9B
:100D6000B901CA01EA30F4F4E05DD801EE938D01D7
:100D7000232B242B252B79F790E080E0109719F096
:100D8000CD010E948306A1960FB6F894DEBF0FBE78
:100D9000CDBFDF91CF911F910F91BF90AF909F90EA
:100DA0008F900895E95CE1CFCF93DF930E94830693
:100DB000EC018AE292E00E9483068C0F9D1FDF9176
:100DC000CF910895CF93DF930E944303EC018AE211
:100DD00092E00E9483068C0F9D1FDF91CF910895B2
:100DE000CF93DF93BC0190E080E04AE00E94900640
:100DF000EC018AE292E00E9483068C0F9D1FDF9136
:100E0000CF91089585ED8093BC008091450390912A
:100E10004603A0914703B09148030796A11DB11D59
:100E200023E0B695A795979587952A95D1F72091B8
:100E3000BC0024FD03C01092430308954091450374
:100E4000509146036091470370914803452B462B10
:100E5000472B69F30097A105B10541F025E32A95D9
:100E6000F1F700000197A109B109E1CF8091440396
:100E70000C94D7041F920F920FB60F9211240BB649
:100E80000F922F933F934F935F936F937F938F9323
:100E90009F93AF93BF93EF93FF938BE693E00E94F2
:100EA000D402FF91EF91BF91AF919F918F917F916C
:100EB0006F915F914F913F912F910F900BBE0F90CB
:100EC0000FBE0F901F9018951F920F920FB60F92A2
:100ED00011240BB60F922F938F939F93EF93FF9351
:100EE000E0917B03F0917C038081E0918103F0919C
:100EF000820382FD1DC09081809184038F5F8F7378
:100F000020918503821741F0E0918403F0E0E559D8
:100F1000FC4F958F80938403FF91EF919F918F9168
:100F20002F910F900BBE0F900FBE0F901F90189532
:100F30008081F2CF1F920F920FB60F9211242F9340
:100F40003F938F939F93AF93BF9380911903909199
:100F50001A03A0911B03B0911C0330910E0323E0F0
:100F6000230F2D3758F50196A11DB11D20930E03B7
:100F70008093190390931A03A0931B03B0931C034F
:100F800080910F0390911003A0911103B09112036F
:100F90000196A11DB11D80930F0390931003A093A0
:100FA0001103B0931203BF91AF919F918F913F9125
:100FB0002F910F900FBE0F901F90189526E8230FCA
:100FC0000296A11DB11DD2CF1F920F920FB60F92A4
:100FD00011240BB60F922F933F934F935F936F9310
:100FE0007F938F939F93AF93BF93EF93FF938091E2
:100FF000B900887F803609F44DC008F040C08832BF
:1010000009F4A9C028F5803109F49DC0C8F48823EB
:1010100009F4FBC0883009F496C0FF91EF91BF91AD
:10102000AF919F918F917F916F915F914F913F9180
:101030002F910F900BBE0F900FBE0F901F90189521
:10104000883109F488C0803241F78093410314C08D
:10105000803409F49DC040F48033B9F38833E9F655
:101060008093410385ECB0C0803509F485C0883594
:1010700009F496C0883489F60E940207CECF8839D9
:1010800009F48CC038F5883729F050F4883611F00F
:10109000803719F683E08093430310920D0357C005
:1010A000883809F47BC0803919F0803809F0B5CF51
:1010B00080910D03803208F071C0E0910D0381E052
:1010C0008E0F80930D038091BB00F0E0E351FD4F44
:1010D00080833DC0803B39F0E0F4803A09F479C068
:1010E000883A09F09ACF84E0809343031092EC028F
:1010F0001092EB02E0911503F0911603199580917F
:10110000EB0281110FC081E08093EB021092CB02C1
:1011100009C0803C09F4A6CF883C09F4A3CF883BE2
:1011200009F07BCFE091EC0281E08E0F8093EC021E
:10113000F0E0E553FD4F80818093BB009091EC027D
:101140008091EB0229C080913E038093BB0085EC27
:101150008093BC0062CF9091400380913F03981729
:1011600058F5E091400381E08E0F80934003F0E05A
:10117000E35EFC4F8081E9CFE091400381E08E0F78
:10118000809340038091BB00F0E0E35EFC4F8083DE
:101190009091400380913F039817C8F285E8D8CF1B
:1011A000E091400381E08E0F809340038091BB006B
:1011B000F0E0E35EFC4F80838091420381115CCFBD
:1011C00081E080933D0384EA8093BC001092430346
:1011D00024CF85EC8093BC001092430380910D03D3
:1011E000803230F4E0910D03F0E0E351FD4F1082C6
:1011F00060910D0370E0E0911303F09114038DEE04
:1012000092E0199510920D0308CF1092410334CF4C
:10121000EBE6F3E01382128288EE93E0A0E0B0E008
:1012200084839583A683B7832AE032E031832083C9
:1012300025EC30E03587248724EC30E0378726879B
:1012400020EC30E0318B208B21EC30E0338B228B93
:1012500022EC30E0358B248B26EC30E0378B268B6C
:10126000118E128E138E148EE8E0F4E01382128237
:1012700084839583A683B7838CE192E091838083F6
:10128000E4E1F4E011821082138212820895CF9378
:10129000DF93CDB7DEB7C755D1090FB6F894DEBFDF
:1012A0000FBECDBF789484B5826084BD84B5816063
:1012B00084BD85B5826085BD85B5816085BD809121
:1012C0006E00816080936E00109281008091810099
:1012D0008260809381008091810081608093810091
:1012E000809180008160809380008091B100846053
:1012F0008093B1008091B00081608093B0008091B4
:101300009100826080939100809191008160809330
:101310009100809190008160809390008091A10065
:1013200082608093A1008091A10081608093A100E0
:101330008091A00081608093A00080912101826053
:10134000809321018091210181608093210180910E
:10135000200181608093200180917A0084608093D5
:101360007A0080917A00826080937A0080917A007E
:10137000816080937A0080917A00806880937A00FF
:101380001092C100E0917B03F0917C0382E08083A6
:10139000E0917703F09178031082E0917903F09166
:1013A0007A0380E1808310928303E0917F03F091C0
:1013B000800386E08083E0917D03F0917E0380814D
:1013C00080618083E0917D03F0917E03808188605D
:1013D0008083E0917D03F0917E038081806880832B
:1013E000E0917D03F0917E0380818F7D80838DE28B
:1013F00092E00E94D40668EE73E080E090E00E94E4
:1014000060048091140490911504892BA1F486E066
:1014100090E00E94BC0DFC0182E1808388E094E0B2
:1014200092838183138280E290E095838483F0939A
:101430001504E09314040091140410911504109203
:101440004A031092490310921803109217030E9446
:10145000B9048EE592E090931603809315038FE50F
:1014600092E0909314038093130381E0D8011396C4
:101470008C93C8010E94810522968FAF229781111B
:101480000BC082E592E00E94D4066AE070E080E042
:1014900090E00E946004F9CF80E792E00E94D406B9
:1014A000FE0131964F01F0E26F2E712C9E01215EFC
:1014B0003F4F21963FAF2EAF2197A0901404B090DC
:1014C0001504A114B10409F420C2D12CC12CD501FA
:1014D00014968D919C917301EC18FD088E159F0553
:1014E00008F47C01F50100810E943B041B012C01E2
:1014F00080914303811173C01E2D113208F010E258
:10150000F1E0F093430321E0C3018E199F09C8164F
:10151000D90608F420E0209342032FEF20934103E3
:10152000109240038FEF810F80933F0331E030939F
:101530003E0380913E03000F082B00933E038091F1
:101540003D03813009F092C010923D030E943B049C
:101550001B012C0180913E038093BB0080914503C9
:1015600090914603A0914703B0914803892B8A2BA1
:101570008B2BA1F00E943B04209145033091460340
:1015800040914703509148036219730984099509F2
:10159000261737074807590708F442C08091BC0056
:1015A00083FDD8CF85EC8093BC000E943B041B01D7
:1015B0002C0180914303813009F45CC08091400389
:1015C000811710F410914003ADE1B3E0EBE4F3E0D8
:1015D00080E0811751F19D9191938F5FFACF8091B7
:1015E000450390914603A0914703B0914803892B8E
:1015F0008A2B8B2B09F47CCF0E943B04209145035E
:101600003091460340914703509148036219730992
:1016100084099509261737074807590708F068CF46
:10162000809144030E94D70410E010924A03109363
:1016300049031E151F0409F079C184010C0D1D1DFD
:101640002801C801841995098E159F05A8F5D501B3
:1016500011968D919C91DC01ED91FC910284F385B2
:10166000E02D1995F80181938F01EBCF95EE9093C2
:10167000BC009BCF8091450390914603A091470306
:10168000B0914803892B8A2B8B2B09F492CF0E94AF
:101690003B0420914503309146034091470350910C
:1016A0004803621973098409950926173707480703
:1016B000590708F07ECFB4CFCE0CDF1CF0E2CF1676
:1016C000D10408F404CF8981823409F02FC1FE01CE
:1016D00031968F0130E020E0D8018D918D01280FE7
:1016E000311D21968EAD9FAD21978A179B07A1F7DB
:1016F000AE014F5D5F4F828190E0982F8827638114
:10170000860F911DDA018D939D93AD013296E017FE
:10171000F10789F7EBA1FCA12C96FFAFEEAF2C9758
:101720008DA19EA162969FAF8EAF6297AFA1B8A523
:101730006896BFAFAEAF6897E9A5FAA52696FFAF4A
:10174000EEAF26970BA51CA58DA59EA528969FAF4D
:101750008EAF2897AFA5B8A92A96BFAFAEAF2A978C
:10176000E9A9FAA96496FFAFEEAF64978BA99CA98B
:1017700066969FAF8EAF6697ADA9BEA92496BFAF00
:10178000AEAF2497EFA9F8AD2E96FFAFEEAF2E9730
:1017900089AD9AAD60969FAF8EAF60978DAD9EADCF
:1017A0002817390709F0C2C08CE792E00E94D406DE
:1017B0008AE292E00E9483068BE294E00E94E206B5
:1017C0008CE094E00E94E20684EE93E00E94E20640
:1017D0008BED93E00E9443032C96AEADBFAD2C97EA
:1017E000BD0190E080E04AE00E94900680ED93E029
:1017F0000E9443036296EEADFFAD6297BF0190E099
:1018000080E04AE00E94900686EC93E00E94430349
:1018100068968EAD9FAD68970E94F00682EA93E0CD
:101820000E94E2068AE793E00E94E20681E793E0E5
:101830000E94430326962EAD3FAD2697B90190E056
:1018400080E04AE00E94900686E693E00E9443030F
:10185000B80190E080E04AE00E9490068CE593E0B9
:101860000E94430328968EAD9FAD28970E94F006F4
:1018700084E393E00E94E20686E193E00E94430342
:101880002A968EAD9FAD2A970E94F00688EF92E0CF
:101890000E94430364968EAD9FAD64970E94F0064C
:1018A0008AED92E00E94430366968EAD9FAD6697E7
:1018B0000E94F0068CEB92E00E94430324968EADCA
:1018C0009FAD24970E94F0068EE992E00E944303A8
:1018D0002E968EAD9FAD2E970E94F00680E892E086
:1018E0000E94430360968EAD9FAD60970E94F00604
:1018F00088E592E00E94E20668EE73E080E090E006
:101900000E9460040E947E03D8CD809116049091BD
:101910001704009759F0DC01ED91FC910084F185EA
:10192000E02D199500E210E0892B61F480E992E046
:101930000E94D40664EF71E080E090E0E1CF0150B6
:101940001109A1F18091160490911704DC01ED9129
:10195000FC910484F585E02D19958234910531F1CF
:101960008091160490911704DC01ED91FC910484A0
:10197000F585E02D19954697C9F080911604909150
:101980001704DC01ED91FC910284F385E02D19959B
:101990008091160490911704DC01ED91FC91008474
:1019A000F185E02D1995892B51F6C0CF8091160451
:1019B00090911704DC01ED91FC910484F585E02DF4
:1019C00019958234910509F07FC080911604909199
:1019D0001704DC01ED91FC910484F585E02D199547
:1019E000B12CE0E2EE2EF12C469731F42296BFACFA
:1019F000229774E1E72EF12C809116049091170440
:101A0000DC01ED91FC910084F185E02D19958E1596
:101A10009F0508F48BCF0091160410911704640100
:101A20002FB7F8948091190390911A03A0911B038A
:101A3000B0911C032FBFF80180879187A287B387DD
:101A4000D801ED91FC910284F385E02DC801199530
:101A500097FF54C02FB7F8948091190390911A03FF
:101A6000A0911B03B0911C032FBFF8014085518545
:101A700062857385841B950BA60BB70B448155813A
:101A80006681778184179507A607B707C8F2898111
:101A9000BB2009F418CE863109F048CF8A81813104
:101AA00009F044CF8B8130E020E08B3009F03ECF4D
:101AB000832F90E08E159F0560F5880D991DDC0140
:101AC0008C91280F3F5FF4CF8091160490911704FA
:101AD000DC01ED91FC910484F585E02D1995469784
:101AE00009F473CF8091160490911704DC01ED91F5
:101AF000FC910284F385E02D199518CFD6018D93C2
:101B00006D01CD01881999098E159F0508F488CFBC
:101B1000BECF0E811F81102701271027222309F431
:101B200043CE04CFA1E21A2EAA1BBB1BFD010DC0A0
:101B3000AA1FBB1FEE1FFF1FA217B307E407F5077D
:101B400020F0A21BB30BE40BF50B661F771F881F59
:101B5000991F1A9469F760957095809590959B01EF
:101B6000AC01BD01CF010895EE0FFF1F881F8BBF91
:101B70000790F691E02D19940F931F93CF93DF9365
:101B80008230910510F482E090E0E0913A04F09107
:101B90003B0430E020E0B0E0A0E0309799F421155C
:101BA000310509F44AC0281B390B24303105D8F51A
:101BB0008A819B816115710589F1FB019383828381
:101BC000FE0111C0408151810281138148175907DC
:101BD000E0F04817590799F4109761F012960C93AA
:101BE000129713961C933296CF01DF91CF911F91DC
:101BF0000F91089500933A0410933B04F4CF2115FC
:101C0000310551F04217530738F0A901DB019A0161
:101C1000BD01DF01F801C1CFEF01F9CF90933B0483
:101C200080933A04CDCFFE01E20FF31F819391938D
:101C30002250310939832883D7CF2091380430913D
:101C40003904232B41F42091020230910302309396
:101C500039042093380420910002309101022115AB
:101C6000310541F42DB73EB7409104025091050271
:101C7000241B350BE0913804F0913904E217F30787
:101C8000A0F42E1B3F0B2817390778F0AC014E5FEC
:101C90005F4F2417350748F04E0F5F1F50933904EC
:101CA00040933804819391939FCFF0E0E0E09CCF84
:101CB000CF93DF930097E9F0FC01329713821282F1
:101CC000A0913A04B0913B04ED0130E020E0109780
:101CD000A1F420813181820F931F2091380430912B
:101CE00039042817390709F061C0F0933904E093EB
:101CF0003804DF91CF910895EA01CE17DF07E8F5A8
:101D00004A815B819E0141155105B1F7E901FB83D1
:101D1000EA8349915991C40FD51FEC17FD0761F46F
:101D2000808191810296840F951FE90199838883B0
:101D3000828193819B838A83F0E0E0E012968D910B
:101D40009C9113970097B9F52D913C911197CD0176
:101D50000296820F931F209138043091390428177E
:101D6000390739F6309751F510923B0410923A0436
:101D7000B0933904A0933804BCCFD383C28340818D
:101D80005181840F951FC817D90761F44E5F5F4FCB
:101D900088819981480F591F518340838A819B8193
:101DA000938382832115310509F0B0CFF0933B0472
:101DB000E0933A049ECFFD01DC01C0CF1382128272
:101DC000D7CFF894FFCF00003C0480000000000053
:101DD000F60260028D025E03BE029C02B0020000A9
:101DE00000004F0522057E05F8041B050805F904CF
:101DF0000D0A00416461667275697420504D53414B
:101E00003030334920416972205175616C697479B1
:101E10002053656E736F7200436F756C64206E6F34
:101E2000742066696E6420504D20322E3520736513
:101E30006E736F722100504D323520666F756E647F
:101E400021004151492072656164696E6720737594
:101E5000636365737300436F756C64206E6F7420E9
:0E1E6000726561642066726F6D204151490009
:020000040003F7
:10E000000D9489F10D94B2F10D94B2F10D94B2F129
:10E010000D94B2F10D94B2F10D94B2F10D94B2F1F0
:10E020000D94B2F10D94B2F10D94B2F10D94B2F1E0
:10E030000D94B2F10D94B2F10D94B2F10D94B2F1D0
:10E040000D94B2F10D94B2F10D94B2F10D94B2F1C0
:10E050000D94B2F10D94B2F10D94B2F10D94B2F1B0
:10E060000D94B2F10D94B2F10D94B2F10D94B2F1A0
:10E070000D94B2F10D94B2F10D94B2F10D94B2F190
:10E080000D94B2F10D94B2F10D94B2F10D94B2F180
:10E090000D94B2F10D94B2F10D94B2F10D94B2F170
:10E0A0000D94B2F10D94B2F10D94B2F10D94B2F160
:10E0B0000D94B2F10D94B2F10D94B2F10D94B2F150
:10E0C0000D94B2F10D94B2F10D94B2F10D94B2F140
:10E0D0000D94B2F10D94B2F10D94B2F10D94B2F130
:10E0E0000D94B2F141546D656761323536300041AF
:10E0F000726475696E6F206578706C6F72657220DE
:10E1000073746B3530305632206279204D4C530099
:10E11000426F6F746C6F616465723E004875683F52
:10E1200000436F6D70696C6564206F6E203D200048
:10E130004350552054797065202020203D20005FF9
:10E140005F4156525F415243485F5F3D2000415658
:10E1500052204C696243205665723D20004743437C
:10E160002056657273696F6E203D20004350552024
:10E1700049442020202020203D20004C6F7720663D
:10E18000757365202020203D20004869676820665F
:10E190007573652020203D200045787420667573D6
:10E1A00065202020203D20004C6F636B2066757336
:10E1B000652020203D20004D617220203720323024
:10E1C000313300312E362E3800342E332E350056A2
:10E1D00023202020414444522020206F7020636F70
:10E1E00064652020202020696E73747275637469E1
:10E1F0006F6E2061646472202020496E74657272B3
:10E20000757074006E6F20766563746F7200726A49
:10E210006D702020006A6D70200057686174207056
:10E220006F72743A00506F7274206E6F7420737541
:10E2300070706F72746564004D7573742062652030
:10E2400061206C6574746572002000577269747483
:10E25000696E672045450052656164696E672045B7
:10E26000450045452065727220636E743D00504F35
:10E27000525400303D5A65726F2061646472003FF1
:10E280003D43505520737461747300403D454550C3
:10E29000524F4D207465737400423D426C696E6B41
:10E2A000204C454400453D44756D70204545505215
:10E2B0004F4D00463D44756D7020464C415348001B
:10E2C000483D48656C70004C3D4C69737420492F83
:10E2D0004F20506F72747300513D51756974005234
:10E2E0003D44756D702052414D00563D73686F7707
:10E2F00020696E7465727275707420566563746FF0
:10E30000727300593D506F727420626C696E6B00BD
:10E310002A0011241FBECFEFD1E2DEBFCDBF01E046
:10E320000CBF12E0A0E0B2E0EEE1FDEF03E00BBFB6
:10E3300002C007900D92A030B107D9F712E0A0E01B
:10E34000B2E001C01D92AE30B107E1F70F9460F367
:10E350000D948DFE01E20EBF0FEF0DBF11241FBE05
:10E360000D9460F30D9400F020E030E040ED57E0B4
:10E3700005C0FA013197F1F72F5F3F4F2817390792
:10E38000C0F308959C01260F311DC901A0E0B0E043
:10E390002F5F3F4FABBFFC018791882361F08093D3
:10E3A000C6008091C00086FFFCCF8091C0008064D1
:10E3B0008093C000EACF08958DE08093C6008091DD
:10E3C000C00086FFFCCF8091C00080648093C000B5
:10E3D0008AE08093C6008091C00086FFFCCF8091C8
:10E3E000C00080648093C00008950F94C2F10F9420
:10E3F000DCF10895FC019081992359F09093C600B7
:10E400008091C00086FFFCCF8091C0008064809323
:10E41000C0003196992379F70895282F982F929567
:10E420009F70892F805D8A3308F0895F8093C600D2
:10E430008091C00086FFFCCF8091C00080648093F3
:10E44000C000822F8F70982F905D9A3308F0995FEB
:10E450009093C6008091C00086FFFCCF8091C000E1
:10E4600080648093C00008959C01FB01853691056E
:10E470001CF46330710594F0C90164E670E00F94F8
:10E480002EFE605D7F4F6093C6008091C00086FFC6
:10E49000FCCF8091C00080648093C0002B30310598
:10E4A00014F43297B4F0C90164E670E00F942EFEC4
:10E4B0006AE070E00F942EFE605D7F4F6093C600AF
:10E4C0008091C00086FFFCCF8091C0008064809363
:10E4D000C000C9016AE070E00F942EFEC0968093E0
:10E4E000C6008091C00086FFFCCF8091C000806490
:10E4F0008093C00008951F93182F8EE692EE60E07F
:10E500000F94C2F11093C6008091C00086FFFCCF2B
:10E510008091C00080648093C0000F94DCF11F9153
:10E5200008952F923F924F925F926F927F928F92B7
:10E530009F92AF92BF92CF92DF92EF92FF920F9392
:10E540001F93DF93CF93CDB7DEB762970FB6F894E2
:10E55000DEBF0FBECDBF382E622ECA01DB015C01CB
:10E560006D01772420E2222E2E010894411C511CBB
:10E570008BC081E0A81680E0B80681E0C80680E084
:10E58000D80628F0C601AA27BB270F940DF2BB2797
:10E59000AD2D9C2D8B2D0F940DF28A2D0F940DF225
:10E5A0002092C6008091C00086FFFCCF8091C00001
:10E5B00080648093C0009DE29093C6008091C0006B
:10E5C00086FFFCCF8091C00080648093C0002092C1
:10E5D000C6008091C00086FFFCCF8091C00080649F
:10E5E0008093C00019828601750188249924A1E0D6
:10E5F0003A1651F03A1620F0B2E03B1661F409C029
:10E600000BBFF701779007C0C7010F9477FE782EF4
:10E6100002C0F7017080872D0F940DF22092C60082
:10E620008091C00086FFFCCF8091C0008064809301
:10E63000C000872D8052F401EF70F0708F3520F408
:10E64000E40DF51D708204C0E40DF51D8EE280839B
:10E650000894E11CF11C011D111D0894811C911CE2
:10E6600090E18916910409F0C2CF80E190E0A0E02A
:10E67000B0E0A80EB91ECA1EDB1E198AC2010F9493
:10E68000FAF10F94DCF16A94662009F072CF629679
:10E690000FB6F894DEBF0FBECDBFCF91DF911F91B3
:10E6A0000F91FF90EF90DF90CF90BF90AF909F9031
:10E6B0008F907F906F905F904F903F902F90089534
:10E6C0002F923F924F925F926F927F928F929F9282
:10E6D000AF92BF92CF92DF92EF92FF920F931F9370
:10E6E000DF93CF93CDB7DEB7CD53D1400FB6F894BB
:10E6F000DEBF0FBECDBF01E20EBF0FEF0DBF94B75F
:10E70000F894A89514BE80916000886180936000A1
:10E7100010926000789493FF05C0E0910002F091A0
:10E7200001021995279A2F9A8091C00082608093E8
:10E73000C00080E18093C40088E18093C1000000A4
:10E74000EE24FF24870144E0A42EB12CCC24DD2448
:10E7500024C0C5010197F1F70894E11CF11C011DCB
:10E76000111D21E2E2162EE4F20620E0020720E06D
:10E77000120718F031E0C32ED12CC801B70127ECE5
:10E780003BE140E050E00F9441FE611571058105C9
:10E79000910519F485B1805885B98091C00087FD35
:10E7A00003C0C114D104A9F2A6014F5F5F4FC25E3E
:10E7B000DE4F59834883CE51D140C25EDE4F8881FF
:10E7C0009981CE51D140019711F00D9410FEC05D9A
:10E7D000DE4F19821882C053D14060E0C15DDE4F28
:10E7E0001882CF52D14088249924C35DDE4F19820C
:10E7F0001882CD52D140C05EDE4F188219821A8233
:10E800001B82C052D140CE5CDE4F188219821A8220
:10E810001B82C253D140EE24FF2487010BBFF701B6
:10E8200007911691C45CDE4F19830883CC53D14005
:10E830000D940BFEC25EDE4F28813981CE51D1404E
:10E840002130310509F52091C600C25EDE4F1982E4
:10E850001882CE51D14022C02F5F3F4F4F4F5F4FA4
:10E86000213082E138078AE7480780E0580780F0C6
:10E87000C45CDE4FE881F981CC53D140EF5FFF4F9C
:10E8800019F0EE27FF27099420E030E040E050E047
:10E890008091C00087FFE0CF2091C600C35DDE4FAE
:10E8A00048815981CD52D1404F5F5F4FC35DDE4FEC
:10E8B00059834883CD52D140213209F063C64A3092
:10E8C000510508F05FC60894811C911C53E0851621
:10E8D000910409F059C600E010E018C081E280936D
:10E8E000C6008091C00086FFFCCF8091C00080648C
:10E8F0008093C0002F5F3F4F2931310579F70F9486
:10E90000DCF10F5F1F4F0530110519F020E030E0FA
:10E91000E5CF10920A0210920B0210920C02109294
:10E920000D02109206021092070210920802109235
:10E930000902109202021092030210920402109235
:10E9400005028FEE90EE60E00F94F5F180E191EE1C
:10E9500060E00F94C2F18091C00087FFFCCF9091DE
:10E96000C600903608F09F759032B8F09093C600BC
:10E970008091C00086FFFCCF8091C00080648093AE
:10E98000C000A0E2A093C6008091C00086FFFCCF2B
:10E990008091C00080648093C000983409F4D7C18E
:10E9A0009934B8F4923409F459C1933458F490333B
:10E9B00019F1903308F4E3C59F33A1F1903409F0C5
:10E9C000DEC5BDC0953409F470C1963409F0D7C5D1
:10E9D00098C1923509F42BC2933538F49C3409F46C
:10E9E000F5C1913509F0CBC518C2963509F445C279
:10E9F000993509F0C4C567C483E792EE62E00F94CD
:10EA0000F5F110920602109207021092080210927D
:10EA1000090210920A0210920B0210920C0210923C
:10EA20000D0213C18FE792EE62E00F94F5F18FEEC5
:10EA300090EE60E00F94F5F181E291EE60E00F94CA
:10EA4000C2F187EB91EE60E00F94F5F180E391EE77
:10EA500060E00F94C2F184EE90EE60E00F94F5F167
:10EA60008FE391EE60E00F94C2F186E090E061E008
:10EA700070E00F9434F20F94DCF18DE591EE60E0DC
:10EA80000F94C2F189EC91EE60E00F94F5F18EE401
:10EA900091EE60E00F94C2F183EC91EE60E00F9490
:10EAA000F5F18CE691EE60E00F94C2F18EE10F94E7
:10EAB0000DF288E90F940DF281E00F940DF20F949E
:10EAC000DCF18BE791EE60E00F94C2F119E0E0E039
:10EAD000F0E010935700E4918E2F0F940DF20F94F5
:10EAE000DCF18AE891EE60E00F94C2F1E3E0F0E03F
:10EAF00010935700E4918E2F0F940DF20F94DCF1D8
:10EB000089E991EE60E00F94C2F1E2E0F0E0109349
:10EB10005700E4918E2F0F940DF20F94DCF188EAE8
:10EB200091EE60E00F94C2F1E1E0F0E01093570045
:10EB30001491812F0F940DF20F94DCF107CF8BE825
:10EB400092EE62E00F94F5F18BE492EE60E00F94A8
:10EB5000F5F10F94DCF100E010E019C0C8016F2D51
:10EB60000F947FFEFF2031F489E492EE60E00F9471
:10EB7000C2F10BC0F092C6008091C00086FFFCCFAE
:10EB80008091C00080648093C0000F5F1F4FC80158
:10EB900081519F41A0E0B0E0ABBFFC01F790BAE229
:10EBA000FB1621F0E2E000301E07C1F60F94DCF105
:10EBB0000F94DCF187E592EE60E00F94F5F10F948D
:10EBC000DCF1CC24DD2400E010E01EC0C8010F946D
:10EBD00077FEF82E882331F489E492EE60E00F94FA
:10EBE000C2F10BC08093C6008091C00086FFFCCFAD
:10EBF0008091C00080648093C000FE1419F00894D6
:10EC0000C11CD11C0F5F1F4FC80181519F41A0E063
:10EC1000B0E0ABBFFC01E790FAE2EF1621F022E092
:10EC20000030120799F60F94DCF10F94DCF182E6C4
:10EC300092EE60E00F94C2F1C60161E070E00F94C3
:10EC400034F20F94DCF10F94DCF110920202109276
:10EC50000302109204021092050278CE89E992EE26
:10EC600062E00F94F5F1279A2F9A16C02F9880E052
:10EC700090E0E0EDF7E03197F1F7019684369105E9
:10EC8000C1F72F9A80E090E0E0EDF7E03197F1F7DF
:10EC9000019684369105C1F78091C00087FFE6CFC9
:10ECA0008091C00087FFFCCF64C485EA92EE62E0E9
:10ECB0000F94F5F140910202509103026091040219
:10ECC0007091050281E020E10F9491F2809102029F
:10ECD00090910302A0910402B091050280509F4FD1
:10ECE000AF4FBF4F8093020290930302A0930402A0
:10ECF000B093050280509041A040B04008F426CE69
:10ED0000A4CF83EB92EE62E00F94F5F140910602FE
:10ED100050910702609108027091090280E020E1A1
:10ED20000F9491F28091060290910702A09108023F
:10ED3000B091090280509F4FAF4FBF4F80930602A2
:10ED400090930702A0930802B0930902FFCD80ECD4
:10ED500092EE62E00F94F5F183E792EE60E00F949B
:10ED6000F5F18FE792EE60E00F94F5F18BE892EE0B
:10ED700060E00F94F5F189E992EE60E00F94F5F10F
:10ED800085EA92EE60E00F94F5F183EB92EE60E09D
:10ED90000F94F5F180EC92EE60E00F94F5F187ECC2
:10EDA00092EE60E00F94F5F188ED92EE60E00F9442
:10EDB000F5F18FED92EE60E00F94F5F18AEE92EEB0
:10EDC00060E00F94F5F183E093EEBDCD87EC92EE19
:10EDD00062E00F94F5F181E40F947BF282E40F94EA
:10EDE0007BF283E40F947BF284E40F947BF285E45E
:10EDF0000F947BF286E40F947BF287E40F947BF20E
:10EE000088E40F947BF28AE40F947BF28BE40F94F6
:10EE10007BF28CE40F947BF299CD88ED92EE62E068
:10EE20000F94F5F1772473948824992409C48FED05
:10EE300092EE62E00F94F5F140910A0250910B02BC
:10EE400060910C0270910D0282E020E10F9491F22A
:10EE500080910A0290910B02A0910C02B0910D02D8
:10EE600080509F4FAF4FBF4F80930A0290930B0289
:10EE7000A0930C02B0930D0269CD8AEE92EE62E08F
:10EE80000F94F5F184EE90EE60E00F94F5F18FECC5
:10EE900091EE60E00F94F5F1662477244301CC5D98
:10EEA000DE4F19821882C452D140D401C301B695F5
:10EEB000A79597958795CA5DDE4F88839983AA8326
:10EEC000BB83C652D140CC5DDE4FA881B981C4520C
:10EED000D1401196CC5DDE4FB983A883C452D14096
:10EEE000CD0162E070E00F9434F2B0E2B093C6005E
:10EEF0008091C00086FFFCCF8091C0008064809329
:10EF0000C000EDE2E093C6008091C00086FFFCCF18
:10EF10008091C00080648093C000F0E2F093C6004E
:10EF20008091C00086FFFCCF8091C00080648093F8
:10EF3000C000CA5DDE4FE880F9800A811B81C6529D
:10EF4000D140BB27A12F902F8F2D0F940DF2CA5DBA
:10EF5000DE4F8881C652D1400F940DF2B0E2FB2EF5
:10EF6000F092C6008091C00086FFFCCF8091C00067
:10EF700080648093C0000DE30093C6008091C000C0
:10EF800086FFFCCF8091C00080648093C00010E2B7
:10EF90001093C6008091C00086FFFCCF8091C00016
:10EFA00080648093C0008BBEF3012791C65DDE4F65
:10EFB0002883CA52D140A22EBB24CC24DD2408943D
:10EFC000611C711C811C911C8BBEF3018791282E42
:10EFD0003324442455240894611C711C811C911C09
:10EFE0008BBEF3013791C55DDE4F3883CB52D140E4
:10EFF0000894611C711C811C911C8BBEF30147910C
:10F00000C45DDE4F4883CC52D140ADEFEA2EAFEF66
:10F01000FA2EAFEF0A2FAFEF1A2F6E0C7F1C801E57
:10F02000911E142D032DF22CEE24EA0CFB1C0C1D5A
:10F030001D1D0F940DF220E22093C6008091C000A8
:10F0400086FFFCCF8091C00080648093C000C65DC5
:10F05000DE4F8881CA52D1400F940DF230E23093D6
:10F06000C6008091C00086FFFCCF8091C000806404
:10F070008093C000C45DDE4F8881CC52D1400F9494
:10F080000DF240E24093C6008091C00086FFFCCFA5
:10F090008091C00080648093C000C55DDE4F888190
:10F0A000CB52D1400F940DF250E25093C6008091A4
:10F0B000C00086FFFCCF8091C00080648093C000B8
:10F0C0008FEFE8168FEFF80680E0080780E018075A
:10F0D00031F484E092EE60E00F94C2F1DFC0D80119
:10F0E000C7018070907CA070B0708050904CA040A0
:10F0F000B040D1F52FEF3FE340E050E0E222F322B1
:10F1000004231523CA5DDE4FA880B980CA80DB8046
:10F11000C652D140AE0CBF1CC01ED11EAA0CBB1CD7
:10F12000CC1CDD1C8EE092EE60E00F94C2F1BB2798
:10F13000A12F902F8F2D0F940DF28E2D0F940DF285
:10F1400030E23093C6008091C00086FFFCCF8091F2
:10F15000C00080648093C0004EE34093C60080915D
:10F16000C00086FFFCCF87C08EE09EEFA0E0B0E03D
:10F17000E822F9220A231B239CE0E91694E9F90608
:10F1800090E0090790E0190709F088C0C45DDE4FE0
:10F19000A881CC52D140EA2EFF2400E010E0102FCD
:10F1A0000F2DFE2CEE24C55DDE4FB881CB52D14031
:10F1B000EB0EF11C011D111DD601C501817090706F
:10F1C000A070B070DC0199278827E80EF91E0A1F8D
:10F1D0001B1F20EF30E040E050E0A222B322C42207
:10F1E000D52241E1AA0CBB1CCC1CDD1C4A95D1F7F1
:10F1F000EA0CFB1C0C1D1D1D81E090E0A0E0B0E0BE
:10F20000282239224A225B2235E1220C331C441C7D
:10F21000551C3A95D1F7E20CF31C041D151D57013E
:10F220006801AA0CBB1CCC1CDD1C85E192EE60E0E1
:10F230000F94C2F1C801AA27BB270F940DF2BB2778
:10F24000A12F902F8F2D0F940DF28E2D0F940DF274
:10F2500090E29093C6008091C00086FFFCCF809121
:10F26000C00080648093C000AEE3A093C60080918C
:10F27000C00086FFFCCF8091C00080648093C000F6
:10F28000C601AA27BB270F940DF2BB27AD2D9C2DDD
:10F290008B2D0F940DF28A2D0F940DF20F94DCF14B
:10F2A000CC5DDE4FE881F981C452D140F99709F471
:10F2B0004DCBF4E0EF2EF12C012D112D6E0C7F1CA7
:10F2C000801E911EF2CD83E093EE62E00F94F5F183
:10F2D0008AE192EE60E00F94C2F18091C00087FF56
:10F2E000FCCF1091C6001F751093C6008091C0001E
:10F2F00086FFFCCF8091C00080648093C0000F9493
:10F30000DCF1812F81548A3108F036C1163409F4BA
:10F3100095C0173490F4133409F44EC0143430F40B
:10F320001134F1F0123409F01DC130C0143409F465
:10F3300059C0153409F016C16BC01A3409F4C4C0A1
:10F340001B3438F4173409F48FC0183409F00AC19B
:10F35000A1C01B3409F4D2C01C3409F003C1E8C0B9
:10F360008FEF81B90DC082B1809582B980E090E0C5
:10F37000E0EDF7E03197F1F70196883C9105C1F790
:10F380008091C00087FFEFCF12B8EFC08FEF84B934
:10F390000DC085B1809585B980E090E0E0EDF7E0A3
:10F3A0003197F1F70196883C9105C1F78091C00033
:10F3B00087FFEFCF15B8D9C08FEF87B90DC088B1DF
:10F3C000809588B980E090E0E0EDF7E03197F1F7C3
:10F3D0000196883C9105C1F78091C00087FFEFCF6F
:10F3E00018B8C3C08FEF8AB90DC08BB180958BB9A7
:10F3F00080E090E0E0EDF7E03197F1F70196883C8E
:10F400009105C1F78091C00087FFEFCF1BB8ADC059
:10F410008FEF8DB90DC08EB180958EB980E090E0F0
:10F42000E0EDF7E03197F1F70196883C9105C1F7DF
:10F430008091C00087FFEFCF1EB897C08FEF80BBD1
:10F440000DC081B3809581BB80E090E0E0EDF7E0F6
:10F450003197F1F70196883C9105C1F78091C00082
:10F4600087FFEFCF11BA81C08FEF83BB0DC084B38C
:10F47000809584BB80E090E0E0EDF7E03197F1F714
:10F480000196883C9105C1F78091C00087FFEFCFBE
:10F4900014BA6BC08FEF809301010FC080910201FD
:10F4A00080958093020180E090E0E0EDF7E03197F5
:10F4B000F1F70196883C9105C1F78091C00087FF64
:10F4C000EDCF1092020151C08FEF809304010FC065
:10F4D0008091050180958093050180E090E0E0ED4A
:10F4E000F7E03197F1F70196883C9105C1F78091DB
:10F4F000C00087FFEDCF1092050137C08FEF8093DA
:10F5000007010FC08091080180958093080180E079
:10F5100090E0E0EDF7E03197F1F70196883C910536
:10F52000C1F78091C00087FFEDCF109208011DC088
:10F530008FEF80930A010FC080910B01809580931B
:10F540000B0180E090E0E0EDF7E03197F1F70196F4
:10F55000883C9105C1F78091C00087FFEDCF1092E4
:10F560000B0103C085E292EEEEC98091C00087FFD7
:10F57000FCCF8091C600EAC988E392EEE4C98CE131
:10F5800091EEE1C988249924933011F1943028F444
:10F59000913089F09230B8F408C0953061F195301F
:10F5A000F0F0963009F048C043C02B3109F042C951
:10F5B00091E06BE13FC96227C15DDE4F2883CF52E6
:10F5C000D14092E037C9B22FA0E0622793E032C960
:10F5D000822F90E0A82BB92B622794E02BC92E3004
:10F5E00009F039C3622795E0C05DDE4F19821882A9
:10F5F000C053D1401FC9E1E0F0E0EC0FFD1FC05D3A
:10F60000DE4F08811981C053D140E00FF11F2083E4
:10F610000F5F1F4FC05DDE4F19830883C053D14079
:10F6200062270A171B0709F005C9D80196E002C92D
:10F63000261709F010C303C0973009F0FBC87724E0
:10F640009981933109F412C19431C8F4963009F4C8
:10F65000D8C0973050F4923009F406C1933009F4C1
:10F660006DC0913009F059C253C0913109F477C08F
:10F67000923108F0BBC0903109F04FC2F5C098310B
:10F6800009F487C0993150F4953109F4EFC09531F0
:10F6900008F4C6C1963109F040C2C2C19A3109F4DA
:10F6A0006CC09A3108F491C09B3109F45BC09D3164
:10F6B00009F033C29D81903359F48F81882311F46E
:10F6C0009EE11CC0813011F091E018C098E916C08D
:10F6D000892F807591F0903539F4E0E0F0E089E011
:10F6E0008093570094910AC0983539F4E3E0F0E034
:10F6F00089E080935700949101C090E01A821B82A8
:10F700008D818C831D829E831F8227E030E009C299
:10F710001A8288E08B8381E48C8386E58D8382E581
:10F720008E8389E48F8383E5888780E589878FE5E9
:10F730008A8782E38B872BE030E0F3C18A818139AD
:10F7400041F0823941F0803911F48FE005C080E04A
:10F7500003C082E001C08AE01A828B8344C0772410
:10F76000739482C08D81882311F48EE12CC0813086
:10F7700011F081E028C088E926C01A82E1E0F0E0BB
:10F7800089E08093570084918B831C8224E030E0D1
:10F79000C8C18B81803589F48C81883039F4E2E0EE
:10F7A000F0E089E08093570084910DC0E0E0F0E044
:10F7B00089E080935700849106C0E3E0F0E089E09F
:10F7C0008093570084911A82DFCF8D81836C99E0FA
:10F7D000E1E0F0E0082E90935700E89507B600FCB2
:10F7E000FDCF1A821B8223E030E09BC180EC8A832C
:10F7F000CE5CDE4F188219821A821B82C253D1401E
:10F800008EC18A8190E0A0E0B0E0582F44273327D2
:10F8100022278B8190E0A0E0B0E0DC0199278827C7
:10F82000282B392B4A2B5B2B8D8190E0A0E0B0E098
:10F83000282B392B4A2B5B2B8C8190E0A0E0B0E089
:10F84000BA2FA92F982F8827282B392B4A2B5B2BCF
:10F85000220F331F441F551FC05EDE4F288339839C
:10F860004A835B83C052D1401A8259C13A81C95C34
:10F87000DE4F3883C753D140CA5CDE4F1882C6536F
:10F88000D1408B81C82EDD24CA5CDE4F488159816E
:10F89000C653D140C42AD52A933109F082C0CE5C28
:10F8A000DE4F88819981AA81BB81C253D1408050AB
:10F8B000904CA340B04030F583E0CE5CDE4FE88052
:10F8C000F9800A811B81C253D140F70100935B008C
:10F8D00080935700E89507B600FCFDCFCE5CDE4F65
:10F8E000088119812A813B81C253D14000501F4FAA
:10F8F0002F4F3F4FCE5CDE4F088319832A833B8313
:10F90000C253D140C05EDE4F488159816A817B81FC
:10F91000C052D140DE011B9631E08C9111962C91A2
:10F9200011971296C75CDE4F2883C953D140C85C3B
:10F93000DE4F1882C853D14090E0C85CDE4FE881AA
:10F94000F981C853D1408E2B9F2B0C01FA01609393
:10F950005B0030935700E89511244E5F5F4F6F4F67
:10F960007F4F0EEFE02E0FEFF02ECE0CDF1CC114F8
:10F97000D10499F685E0C05EDE4F088119812A81A5
:10F980003B81C052D140F80120935B008093570027
:10F99000E89507B600FCFDCF81E180935700E8951C
:10F9A00035C0C05EDE4F88819981AA81BB81C0527B
:10F9B000D140B695A795979587957C018601ABE0D8
:10F9C000AA2EB12CAC0EBD1E0BC0D5016D915D01F0
:10F9D000C7010F947FFE0894E11CF11C01501040F8
:10F9E0000115110591F7A60160E070E0440F551F65
:10F9F000661F771FC05EDE4FE880F9800A811B8199
:10FA0000C052D1404E0D5F1D601F711F1A82C05E33
:10FA1000DE4F488359836A837B83C052D1407FC0C5
:10FA2000FA80C55CDE4FF882CB53D140C65CDE4F16
:10FA30001882CA53D1408B81C82EDD24C65CDE4FAC
:10FA400008811981CA53D140C02AD12A1A828981DA
:10FA5000BE016D5F7F4F843121F59601C05EDE4FA0
:10FA6000E880F9800A811B81C052D1400BBFF701A9
:10FA700087919691DB018C9311969C936E5F7F4FDB
:10FA8000D801C7010296A11DB11DC05EDE4F88835B
:10FA90009983AA83BB83C052D14022503040F1F6F3
:10FAA00036C0C05EDE4F288139814A815B81C052F9
:10FAB000D1400894C108D108760100E010E0089414
:10FAC000C11CD11C0894E11CF11C011D111DE20E8A
:10FAD000F31E041F151F21BDBB27A52F942F832FB5
:10FAE00082BD2F5F3F4F4F4F5F4FF89A80B5DB01CC
:10FAF0008D93BD012E153F054007510761F7C05E8C
:10FB0000DE4F288339834A835B83C052D1409601FC
:10FB10002D5F3F4FFB01108204C080EC8A8322E0FE
:10FB200030E08BE18093C6008091C00086FFFCCF5F
:10FB30008091C00080648093C000C15DDE4FF88179
:10FB4000CF52D140F093C6008091C00086FFFCCF19
:10FB50008091C00080648093C000432F3093C60022
:10FB60008091C00086FFFCCF8091C00080648093AC
:10FB7000C000922F2093C6008091C00086FFFCCF6A
:10FB80008091C00080648093C0008EE08093C600A6
:10FB90008091C00086FFFCCF8091C000806480937C
:10FBA000C00065E1C15DDE4FE880CF52D1406E25D7
:10FBB00069276427FE01319610C090819093C6009A
:10FBC0008091C00086FFFCCF31968091C000806498
:10FBD0008093C0006927215030402115310569F715
:10FBE0006093C6008091C00086FFFCCF8091C0006A
:10FBF00080648093C00085B1805885B9772081F4F6
:10FC0000C15DDE4F0881CF52D1400F5FC15DDE4F35
:10FC10000883CF52D14090E0A0E0B0E00D941AF4F8
:10FC200027982F9880E090E020ED37E0F901319798
:10FC3000F1F7019684369105C9F700008091C00064
:10FC40008D7F8093C00081E180935700E895EE2777
:10FC5000FF270994FFCF90E00D941AF497FB092E2B
:10FC600007260AD077FD04D02ED006D000201AF443
:10FC7000709561957F4F0895F6F7909581959F4F08
:10FC80000895A1E21A2EAA1BBB1BFD010DC0AA1FDD
:10FC9000BB1FEE1FFF1FA217B307E407F50720F0F5
:10FCA000A21BB30BE40BF50B661F771F881F991F70
:10FCB0001A9469F760957095809590959B01AC01B9
:10FCC000BD01CF010895AA1BBB1B51E107C0AA1FAC
:10FCD000BB1FA617B70710F0A61BB70B881F991FED
:10FCE0005A95A9F780959095BC01CD010895F99991
:10FCF000FECF92BD81BDF89A992780B50895262F31
:10FD0000F999FECF1FBA92BD81BD20BD0FB6F89400
:0EFD1000FA9AF99A0FBE01960895F894FFCF63
:00000001FF
